:03000000021607DE
:0C160700787FE4F6D8FD75816F02164E66
:101C240000000010002000300040010001100120DD
:041C3400013001403A
:031BA70001090031
:1018FB00753501E4F536D293D292121C48121B3087
:10190B00121AAF1219717A087B417D087F02121AE5
:10191B00257A087B617D287F02121A257A087BC104
:10192B007D287F04121A25536FEF907F03E56FF02C
:10193B00436F20E56FF07A087B817D087F02121AD6
:10194B00257A087BA17D287F02121A257A087BE174
:10195B007D087F04121A25E535600A121800121B48
:05196B00DC8F3580F265
:011970002254
:0D1C4800D297D296C295907F00740FF022C3
:0D1C5500C297C296D295907F00740FF022C6
:10171B00EF25E02422F582E4341CF583E493FC747A
:10172B0001938C2CF52DEF25E0242CF582E4341C51
:10173B00F583E493FE7401938E2FF530D297C29606
:10174B00D295E4FB852D82852C83E0FEA3E0FFEB95
:10175B0025E02415F8A60608A6077402252DF52DFD
:10176B00E4352CF52C0BBB06DBE4FB853082852F97
:10177B0083E0FCA3E0FDA3E0FEA3E0FFEB25E02567
:10178B00E02421F8120E1F74042530F530E4352FB8
:06179B00F52F0BBB02D587
:0117A1002225
:0E145E00E53E25E02415F8E6FE08E6FFAD3E6B
:06146C008E3F8F408D4110
:10147200121C48536FEF907F03E56FF0436F20E536
:101482006FF0AE3FAF407C037DE8120C58EF25E0D1
:10149200244FF8E6FA08E6FBE54125E0FFE4FD12F9
:1014A20019DFE54125E0FF7A087B217D081219DF6B
:1014B200AE3FAF407C037DE8120C587E007F64CFC4
:1014C200CDCFCECCCE120C58EF25E0244FF8E6FA61
:1014D20008E6FBE54125E0FF7D101219DFAE3FAFC4
:1014E200407C037DE8120C587E007F64CFCDCFCEC6
:1014F200CCCE120C587E007F0ACFCDCFCECCCE12EE
:101502000C58EF25E0244FF8E6FA08E6FBE5412502
:10151200E0FF7D181219DFAE3FAF407C037DE81279
:101522000C587E007F64CFCDCFCECCCE120C587E2D
:10153200007F0ACFCDCFCECCCE120C58AF05EF250F
:10154200E0244FF8E6FA08E6FBE54125E0FF7D20BE
:031552000219DF9C
:0803B0008F428E418D408C3F0D
:1003B800121C48436F10907F03E56FF0536FDFE521
:1003C8006FF0AE41AC3FEC335010E543240225E01A
:1003D800FF7A077B417D281219DF7B807A9679980E
:1003E8007800AF42AE41AD40AC3F121A6BEF25E04A
:1003F800244FF8E6FA08E6FBE543240225E0FF7DF2
:10040800301219DF7B807A9679987800AF42AE4136
:10041800AD40AC3F121A6BAC00AD01AE02AF037B2E
:10042800407A42790F7800121A6BEF25E0244FF8D2
:10043800E6FA08E6FBE543240225E0FF7D381219B9
:10044800DF536FEF907F03E56FF0436F20E56FF0A8
:10045800E543240225E0FF7A087B21E4FD1219DF39
:100468007B807A9679987800AF42AE41AD40AC3F38
:10047800121A6BAC00AD01AE02AF037B407A427931
:100488000F7800121A6BAC00AD01AE02AF037BA06F
:100498007A8679017800121A6BEF25E0244FF8E686
:1004A800FA08E6FBE543240225E0FF7D081219DF80
:1004B8007B807A9679987800AF42AE41AD40AC3FE8
:1004C800121A6BAC00AD01AE02AF037B407A4279E1
:1004D8000F7800121A6BAC00AD01AE02AF037BA01F
:1004E8007A8679017800121A6BAC00AD01AE02AFC2
:1004F80003E47B107A27F9F8121A6BEF25E0244FF2
:10050800F8E6FA08E6FBE543240225E0FF7D101231
:1005180019DF7B807A9679987800AF42AE41AD407A
:10052800AC3F121A6BAC00AD01AE02AF037B407A50
:1005380042790F7800121A6BAC00AD01AE02AF031E
:100548007BA07A8679017800121A6BAC00AD01AEF7
:1005580002AF03E47B107A27F9F8121A6BAC00ADEE
:1005680001AE02AF03E47BE87A03F9F8121A6BEFE5
:1005780025E0244FF8E6FA08E6FBE543240225E0E7
:10058800FF7D181219DF7B807A9679987800AF4240
:10059800AE41AD40AC3F121A6BAC00AD01AE02AF3C
:1005A800037B407A42790F7800121A6BAC00AD01D8
:1005B800AE02AF037BA07A8679017800121A6BAC81
:1005C80000AD01AE02AF03E47B107A27F9F8121AE6
:1005D8006BAC00AD01AE02AF03E47BE87A03F9F837
:1005E800121A6BAC00AD01AE02AF03E47B64FAF9FA
:1005F800F8121A6BEF25E0244FF8E6FA08E6FBE557
:1006080043240225E0FF7D201219DF7B807A96794A
:10061800987800AF42AE41AD40AC3F121A6BAC00C7
:10062800AD01AE02AF037B407A42790F7800121A0F
:100638006BAC00AD01AE02AF037BA07A867901787E
:1006480000121A6BAC00AD01AE02AF03E47B107A66
:1006580027F9F8121A6BAC00AD01AE02AF03E47BC8
:10066800E87A03F9F8121A6BAC00AD01AE02AF03D9
:10067800E47B64FAF9F8121A6BAC00AD01AE02AF74
:1006880003E47B0AFAF9F8121A6BEF25E0244FF815
:10069800E6FA08E6FBE543240225E0FF7D28121967
:1006A800DF7B807A9679987800AF42AE41AD40AC56
:1006B8003F121A6BAC00AD01AE02AF037B407A4229
:1006C800790F7800121A6BAC00AD01AE02AF037B54
:1006D800A07A8679017800121A6BAC00AD01AE02DF
:1006E800AF03E47B107A27F9F8121A6BAC00AD015E
:1006F800AE02AF03E47BE87A03F9F8121A6BAC0098
:10070800AD01AE02AF03E47B64FAF9F8121A6BACE0
:1007180000AD01AE02AF03E47B0AFAF9F8121A6BD6
:10072800AF03EF25E0244FF8E6FA08E6FBE543249B
:090738000225E0FF7D300219DF0B
:060A11008E3B8F3C8D3D81
:100A1700121AAFE53C453B60026104436F10907FBB
:100A270003E56FF0536FDFE56FF07A097B01E4FDB3
:100A3700FF1219DF7A097B117D08E4FF1219DF7AAB
:100A4700087B317D10E4FF1219DF7A097B01E4FD91
:100A57007F021219DF7A097B217D087F021219DFD5
:100A67007A087B317D107F021219DF7A097B01E456
:100A7700FD7F041219DF7A097B317D087F04121983
:100A8700DF7A087B317D107F041219DF7A097B41F9
:100A9700E4FD7F061219DF7A097B117D087F0612B4
:100AA70019DF7A087B317D107F061219DF536FEF4C
:100AB700907F03E56FF0436F20E56FF07A077B6166
:100AC7007D38E4FF1219DF7A077B617D387F0212D8
:100AD70019DF7A077B617D387F041219DF7A077B7C
:100AE700517D387F061219DFAF3D12171BE4F53E23
:100AF70012145E053EE53EC3940440F422E53C64CF
:100B070001453B600261F3436F10907F03E56FF08F
:100B1700536FDFE56FF07A097B41E4FDFF1219DFC0
:100B27007A097B217D08E4FF1219DF7A087B317D82
:100B370010E4FF1219DF7A097B41E4FD7F021219E5
:100B4700DF7A097B317D087F021219DF7A087B3152
:100B57007D107F021219DF7A097B51E4FD7F0412B1
:100B670019DF7A087B317D107F041219DF7A097B40
:100B770061E4FD7F061219DF7A087B317D107F065D
:100B87001219DF536FEF907F03E56FF0436F20E596
:100B97006FF07A077B517D38E4FF1219DF7A077B04
:100BA700517D387F021219DF7A077B717D387F0408
:100BB7001219DF7A077B717D387F061219DF753EC0
:100BC7000412145E053EE53EC3940640F4E4F53E88
:100BD700E53E25E025E02421F8120E13853E431259
:100BE70003B0053EE53EC3940240E522E53C6402BE
:100BF700453B704A436F10907F03E56FF0536FDFFB
:100C0700E56FF07A097BB1E4FD7F02121A257A09B4
:100C17007BB17D207F02121A25536FEF907F03E58A
:100C27006FF0436F20E56FF07A097BD1E4FD7F0217
:0E0C3700121A257A097BF17D207F02121A2500
:010C4500228C
:101C3800758901D28C758C3C758AB0D2A9D2AF2235
:03000B000217F6E3
:0717F600758C3C758AB032CE
:071C7B00D2A8D288D2AF22EB
:04155500AB07AA0630
:10155900EB4A7020C297D296C29585804EC297C237
:1015690096D295A980E975F010A4F582E54E45F06B
:10157900FCE582FDEB64014A7018C297C296C295D8
:1015890085804EC297C296D295A980E54EFEE9FDA7
:10159900EEFCECC4F854F0C868FCEDC4540F48FDE7
:1015A900D39400EC94004010EC9408500BC3E49DD4
:1015B900FD74089CFCE4F50EED4C700B74FF2DFDD9
:1015C90074073CFCE4F50EE4B5050EECB4080AE436
:1015D9002DFD74F83CFC750E01D3ED9400EC9408D4
:1015E900400AE42DFD74F83CFC750E01ED25E0FF81
:0D15F900EC33FEE50E7006C39FFFE49EFE7E
:0116060022C1
:030003000216934F
:10169300C0E0C0F0C082C0D075D000C000C001C09F
:1016A30002C003C004C005C006C00720931FE5089D
:1016B300B4011AD2947F017E001215558E338F34F4
:1016C300E4FFFE1215558E318F3275080020922FDC
:1016D300E5097014AF8CEFFEAD8A7C00E42DF50BA9
:1016E300EC3EF50A05098017E509B40112AF8CEF4A
:1016F300FEAD8A7C00E42DF50DEC3EF50C0509D01A
:1017030007D006D005D004D003D002D001D000D03A
:08171300D0D082D0F0D0E0320A
:02188200A907B4
:10188400E4F53BF53CD293C292121C55E4FEE924E4
:1018940003FDE433FCEFC39DEC6480F8748098503E
:1018A40046907F01EFF0121C38121C7BE509B4024C
:1018B400FBC2A8C2A9C2AFC3E50D950BFDE50C950B
:1018C4000AFCEE25E0240FF8A60408A605EE25E0A0
:1018D400240FF8E6FC08E6253CF53CEC353BF53BEB
:1018E400E4F5090F0E80A7AE3BAF3C7C007D0312EC
:0618F4000C588E298F2A1A
:0118FA0022CB
:02118C008F3B97
:10118E00AE29AF2A7C007D60120C58EF24E7FFEEEB
:10119E0034FFFEEFC4F8540FC868F53DEEC454F0AA
:1011AE0048F53CC293D292E4FDAC3BE53B2403FFF1
:1011BE00E433FEECC39FEE6480F8748098400261C5
:1011CE0004121C55907F01ECF0A3F0907F04E53DD6
:1011DE00F0E53CA3F0907F0074CFF0907F00E0200C
:1011EE00E6F9750801D294E50870FCD297C296D242
:1011FE0095EC653B7049901C6F93FE7401938E695C
:10120E00F56A901C71E493FE7401938E63F5648508
:10121E006A82856983E533F0A3E534F085648285BF
:10122E006383E531F0A3E532F07402256AF56AE4D2
:10123E003569F56974022564F564E43563F563E593
:10124E003B2401FFE433FEECFB7A006F7001EE707D
:10125E0049901C7393FE7401938E6BF56C901C7504
:10126E00E493FE7401938E65F566856C82856B83BF
:10127E00E533F0A3E534F0856682856583E531F0CC
:10128E00A3E532F07402256CF56CE4356BF56B74E6
:10129E00022566F566E43565F565E53B2402FFE457
:1012AE0033FEEB6F7002EA6E7049901C7793FE74FA
:1012BE0001938E6BF56C901C79E493FE7401938E02
:1012CE0065F566856E82856D83E533F0A3E534F0B2
:1012DE00856882856783E531F0A3E532F0740225D7
:1012EE006EF56EE4356DF56D74022568F568E435BE
:0E12FE0067F5670C21B90DED6420600221B781
:01130C0022BE
:10100000E4F53A1218008F3AE53AC3940140F4E54A
:101010003AD3940550ED536FEF907F03E56FF043A3
:101020006F20E56FF0E53A25E0244FF8E6FA08E690
:10103000FBE4FD7F041219DF753808E4F539E53863
:10104000C394174002216CAF38121882AF381211C6
:101050008CD297C296D295E53925E02424F582E416
:10106000341CF583E493FE7401938E2CF52DE53941
:1010700025E0242EF582E4341CF583E493FE74010C
:10108000938E2FF530AA69A96A7B011217A2852DCC
:1010900082852C83EEF0A3EFF07402252DF52DE46C
:1010A000352CF52CAA6BA96C7B011217A2852D8219
:1010B000852C83EEF0A3EFF07402252DF52DE43599
:1010C0002CF52CAA6DA96E7B011217A2852D8285A5
:1010D0002C83EEF0A3EFF07402252DF52DE4352CD2
:1010E000F52CAA63A9647B011217A2852D82852C99
:1010F00083EEF0A3EFF07402252DF52DE4352CF5E9
:101100002CAA65A9667B011217A2852D82852C83E6
:10111000EEF0A3EFF07402252DF52DE4352CF52C1F
:10112000AA67A9687B011217A2852D82852C83EE00
:10113000F0A3EFF07402252DF52DE4352CF52C12DB
:101140000E43853082852F83120E2B74042530F5D3
:1011500030E4352FF52F12000E853082852F831253
:101160000E2B74032538F5380539013E121C48ADA5
:101170003AE4FFFE120A118005EF640760051218B9
:0C1180000080F6AD3A7F017E00020A11EB
:101BDC008F37E53724FA601C24FD7023AB50AA4FD5
:101BEC00E4FD7F041219DF7F107E27121B101210E8
:101BFC0000753706E4FD7F02FE120A117F00227F7A
:021C0C000122B3
:0C1C6F000200030004000500060007004E
:101BAA0002690000026B0000026D0000026300007F
:081BBA00026500000267000053
:08130D008F438E428D418C409C
:10131500E4FFFEFDFCAB43AA42A941A840C3120D60
:10132500DC7003FEFF22E4F544F545AF43AE42AD64
:1013350041AC40781E120DED8F498E488D478C4685
:10134500AF43AE42AD41AC407802120E008F438EE2
:10135500428D418C40E47F01FEFDFCAB49AA48A9C2
:1013650047A846D3120DDC40230545E54570020527
:1013750044AE44FBAA06E5499BF549E5489AF5487C
:10138500E5479400F547E5469400F54690000FE5DE
:101395004525E0F545E54433F544AF49AE48AD474D
:1013A500AC467802120E008F498E488D478C46AFA9
:1013B50043AE42AD41AC40781E120DEDE5492FF527
:1013C50049E5483EF548E5473DF547E5463CF546E0
:1013D500E485454D85444CF54BF54AAF4DAE4CADD6
:1013E5004BAC4A7801120E00EF2401F54DE43EF5B1
:1013F5004CE43DF54BE43CF54AAF43AE42AD41AC60
:10140500407802120E008F438E428D418C40AF4DC5
:10141500AE4CAD4BAC4AAB49AA48A947A846C31246
:101425000DDC4020E549954DF549E548954CF548D5
:10143500E547954BF547E546954AF5460545E545A6
:1014450070020544E582158270021583E5824583A5
:0814550060026194AE44AF4552
:01145D00226C
:1017A200E4F53FF53EF53DF53CF53B120CE3FDACAF
:1017B200F0FFAEF0120C46EE3395E0FDFCE53F2F54
:1017C200F53FE53E3EF53EE53D3DF53DE53C3CF56C
:1017D2003C740229F9E43AFA053BE53BB420CCE437
:1017E2007B20FAF9F8AF3FAE3EAD3DAC3C120D4A5C
:0317F20012130DC2
:0117F50022D1
:100E4300901C6FE493FE7401938E69F56A901C7194
:100E5300E493FE7401938E63F564901C73E493FE34
:100E63007401938E6BF56C901C75E493FE7401937F
:100E73008E65F566901C77E493FE7401938E6BF593
:100E83006C901C79E493FE7401938E65F566E4FB24
:100E9300856A8285698375F002EB120E37E0FCA345
:100EA300E0FD85648285638375F002EB120E37E003
:100EB300FEA3E0FF120C46EE3395E0FDFCE53E2F6A
:100EC300F53EE53D3EF53DE53C3DF53CE53B3CF57A
:100ED3003B0BBB20BBAF3EAE3DAD3CAC3BE47B200C
:100EE300FAF9F8121A6B8F3E8E3D8D3C8C3BE4FB76
:100EF300856C82856B8375F002EB120E37E0FCA3E1
:100F0300E0FD85668285658375F002EB120E37E09E
:100F1300FEA3E0FF120C46EE3395E0FDFCE5422F05
:100F2300F542E5413EF541E5403DF540E53F3CF501
:100F33003F0BBB20BBAF42AE41AD40AC3FE47B2097
:100F4300FAF9F8121A6B8F428E418D408C3FE4FB05
:100F5300856E82856D8375F002EB120E37E0FCA37C
:100F6300E0FD85688285678375F002EB120E37E03A
:100F7300FEA3E0FF120C46EE3395E0FDFCE5462FA1
:100F8300F546E5453EF545E5443DF544E5433CF589
:100F9300430BBB20BBAF46AE45AD44AC43E47B2023
:100FA300FAF9F8121A6B8F468E458D448C43E53E51
:100FB3002542FFE53D3541FEE53C3540FDE53B354A
:100FC3003FFCEF2546FFEE3545FEED3544FDEC35A0
:020FD30043FCDD
:010FD50022F9
:10000E00901C6FE493FE7401938E69F56A901C71D7
:10001E00E493FE7401938E63F564901C73E493FE77
:10002E007401938E6BF56C901C75E493FE740193C2
:10003E008E65F566901C77E493FE7401938E6BF5D6
:10004E006C901C79E493FE7401938E65F566856A57
:10005E0082856983E0FCA3E0FDE564243EF582E43D
:10006E003563F583E0FEA3E0FF120C46AA06AB074C
:10007E00E56A243EF582E43569F583E0FCA3E0FDF4
:10008E00856482856383E0FEA3E0FF120C46C3EF16
:10009E009BFFEE9AFE7C007D02120CADEE3395E0D6
:1000AE008F3F8E3EF53DF53C856C82856B83E0FC83
:1000BE00A3E0FDE566243EF582E43565F583E0FEBA
:1000CE00A3E0FF120C46AA06AB07E56C243EF582B0
:1000DE00E4356BF583E0FCA3E0FD856682856583E0
:1000EE00E0FEA3E0FF120C46C3EF9BFFEE9AFE7CF0
:1000FE00007D02120CADEE3395E08F438E42F5413A
:10010E00F540856E82856D83E0FCA3E0FDE56824F5
:10011E003EF582E43567F583E0FEA3E0FF120C4660
:10012E00AA06AB07E56E243EF582E4356DF583E055
:10013E00FCA3E0FD856882856783E0FEA3E0FF12E5
:10014E000C46C3EF9BFFEE9AFE7C007D02120CADB7
:10015E00EE3395E08F478E46F545F544753B01E548
:10016E003B2401FFE433FEEF25E0FFEE33FEE56AAC
:10017E002FF582E5693EF583E0FCA3E0FD85648200
:10018E0085638375F002E53B120E37E0FEA3E0FFB8
:10019E00120C46AA06AB07E53B2401FFE433FEEF43
:1001AE0025E0FFEE33FEE5642FF582E5633EF58331
:1001BE00E0FEA3E0FF856A8285698375F002E53B68
:1001CE00120E37E0FCA3E0FD120C46C3EF9BFFEED0
:1001DE009AFE7C007D02120CADEE3395E0FDFCE53F
:1001EE003F2FF53FE53E3EF53EE53D3DF53DE53C19
:1001FE003CF53C053BE53B64206002216DAF3FAE14
:10020E003EAD3DAC3CE47B20FAF9F8121A6B8F3F01
:10021E008E3E8D3D8C3C753B01E53B2401FFE43366
:10022E00FEEF25E0FFEE33FEE56C2FF582E56B3E2B
:10023E00F583E0FCA3E0FD85668285658375F0029B
:10024E00E53B120E37E0FEA3E0FF120C46AA06AB0A
:10025E0007E53B2401FFE433FEEF25E0FFEE33FE1E
:10026E00E5662FF582E5653EF583E0FEA3E0FF85AA
:10027E006C82856B8375F002E53B120E37E0FCA3B2
:10028E00E0FD120C46C3EF9BFFEE9AFE7C007D0252
:10029E00120CADEE3395E0FDFCE5432FF543E54240
:1002AE003EF542E5413DF541E5403CF540053BE577
:1002BE003B642060024127AF43AE42AD41AC40E407
:1002CE007B20FAF9F8121A6B8F438E428D418C40C7
:1002DE00753B01E53B2401FFE433FEEF25E0FFEE25
:1002EE0033FEE56E2FF582E56D3EF583E0FCA3E06F
:1002FE00FD85688285678375F002E53B120E37E057
:10030E00FEA3E0FF120C46AA06AB07E53B2401FF55
:10031E00E433FEEF25E0FFEE33FEE5682FF582E5D0
:10032E00673EF583E0FEA3E0FF856E82856D8375E3
:10033E00F002E53B120E37E0FCA3E0FD120C46C3C3
:10034E00EF9BFFEE9AFE7C007D02120CADEE339514
:10035E00E0FDFCE5472FF547E5463EF546E5453D14
:10036E00F545E5443CF544053BE53B642060024120
:10037E00E1AF47AE46AD45AC44E47B20FAF9F81246
:10038E001A6B8F478E468D458C44E53F2543FFE51E
:10039E003E3542FEEF2547FFEE3546FE3395E0FD36
:0103AE00FC52
:0103AF00222B
:031BC200016F00B0
:0C1C62007F017E267D82DDFEDEFADFF6CB
:011C6E002253
:101AF000907F03E56FF0536FFDE56FF0907F01EF8E
:101B0000F0E4FFFE121B10436F01907F03E56FF0BE
:101B1000E4FDFCC3ED9FEC9E5015E4FBFA0BBB000B
:0F1B2000010AEB640A4A70F50DBD00010C80E468
:011B2F002293
:101B7000907F01E4F0536FFB907F03E56FF0436FBC
:101B800002E56FF0436F01E56FF0907F00740CF099
:101B9000907F01E020E7F9907F00740DF0536FFE15
:071BA000907F03E56FF022C6
:100FD600E56FF07F0A7E00121B10E53F24B8FF1272
:040FE6000FEA7F404F
:100FEA00121B70536FFB121AF0536FFEE56FF0225B
:061C0E003EF583E493FFA4
:101C1400121B70436F04121AF0536FFEE56FF0222B
:10197100536FDF907F03E56FF0536FEFE56FF07FFB
:10198100B8120FE5E4F97F01121C1409B940F77F81
:10199100BF120FE5E4F97F80121C1409B940F7E486
:1019A100F9536FEF907F03E56FF0436F20E56FF020
:1019B100E924B8FF120FEA7F7F120FEA7FFF121CA2
:1019C10014436F10907F03E56FF0536FDFE56FF005
:0D19D100E9120FE27FFF121C1409B908C4CF
:0119DE0022E6
:101AAF00E4F53F436F10907F03E56FF0536FDF1244
:101ABF000FD6E4F9E4FF121C1409B940F7536FEF86
:101ACF00907F03E56FF0436F20120FD67940E4FF4C
:101ADF00121C1409B980F7053FE53FC3940840C3B2
:011AEF0022D4
:0819DF008F448D458A468B47B9
:1019E700E4F9F548E54424B829FF120FEAE5452450
:1019F70040FF120FEAE4F548E975F008A47C0025DA
:101A070048FFEC35F0FEE5472FF582E546121C0E40
:0D1A17000548E548C3940840DF09B902C73F
:011A2400229F
:081A25008F3F8D408A418B4286
:101A2D00E4F9F543E53F24B829FF120FEAE5402418
:101A3D0040FF120FEAE4F543E975F010A47C002590
:101A4D0043FFEC35F0FEE5422FF582E541121C0E09
:0D1A5D000543E543C3941040DF09B902C7FB
:011A6A002259
:101B3000121B70536FF7907F03E56FF07F647E0098
:101B4000121B10436F08E56FF0121B10536FEFE587
:101B50006FF0536FDFE56FF0121B107F3E120FEA3C
:101B60007FB8120FEA7FC0120FE57F3F120FEA2203
:10180000E4F53CFC907F00740FF0EC7006907F02D2
:1018100074FEF0BC0106907F0274FDF0BC020690DD
:101820007F0274FBF0907F00740DF0907F02E0FF68
:101830005307F0EF64F060417F01121C62E0FF5338
:1018400007F0EF64F0602FEF2450601E24E0600F7B
:1018500024F07022EC75F003A4FFC374078014EC2D
:1018600075F003A4FFC374088009EC75F003A4FFAE
:10187000C374099FF53BAF3B220CEC640370857F7A
:011880000A5D
:011881002244
:1007410000000000000000000001010101010100A2
:100751000000C038E0000000203C230202273820BE
:100761000878880000C83808000007380E0100002A
:1007710008F800F800F8080000033E013E030000FD
:1007810000E010080810E000000F102020100F00FA
:1007910000001010F8000000000020203F20200081
:1007A100007008080808F0000030282422213000D9
:1007B10000300808088870000018202121221C0040
:1007C1000000804030F8000000060524243F242466
:1007D10000F88888880808000019202020110E00E0
:1007E10000E0108888900000000F112020201F00D9
:1007F10000180808886818000000003E0100000089
:100801000070880808887000001C222121221C0029
:1008110000F008080810E0000001122222110F0068
:100821000000000000000000003030000000000067
:10083100000000C0C00000000000003030000000D7
:10084100808088C8D898D0D89CFE767C5808000053
:100851001010171F1E3B2F2E2F6F6B4F4F41410062
:100861000040C8C888F8F8E8F8F8E0E0FCFCFC00B3
:10087100000C0E27333B1F071F1B13337F7F3F00E5
:1008810000C0E0F8D8E86070FCDCF4B010000000B3
:100891000012121B1B0A0A031534646101030200D2
:1008A10000404048C8E8E03838BEBEBCB8B80800CF
:1008B10010181B0B0F073D3D1F1F3D3E667E7E003E
:1008C10008049392969A92FA94939296FA020200ED
:1008D1004040472424140CFF04042444241C000039
:1008E100003E22E2223E0010885724548C00000072
:1008F100407E403F22220001FE424242FE010100B1
:1009010008F808000008F808001F202020201F0018
:10091100000080808000000000192424123F200084
:1009210010F0008080000000003F112020110E0017
:100931000000008080800000000E112020201100A6
:10094100000808F8080800000020203F20200000CF
:1009510008F808080808F000203F21010101000003
:10096100E01008080810E0000F10282830504F0050
:1009710000007E92929292929292929E80E000006A
:10098100088848281E0808080808FE080808080002
:10099100201808EAACA8A8AFA8A8ACEA0828180053
:1009A10000003E02020202FF020212221E000000AB
:1009B1004042CC0000FC5655FC801010FF10100086
:1009C10000003F102A134A867F0043807F00000009
:1009D1008060F80704E4242424FF242424E4040090
:1009E1000000FF0080814529112F41418181800054
:1009F1000000FE22222222FE22222222FE000000EC
:100A010080601F020202027F020242827F00000018
:101BC500144F0781079107A107B107C107D107E1A5
:061BD50007F108010811F0
:101613000218FBE493A3F8E493A34003F68001F2DA
:1016230008DFF48029E493A3F85407240CC8C333D8
:10163300C4540F4420C8834004F456800146F6DFA7
:10164300E4800B0102040810204080901BA7E47E75
:10165300019360BCA3FF543F30E509541FFEE4939C
:10166300A360010ECF54C025E060A840B8E493A363
:10167300FAE493A3F8E493A3C8C582C8CAC583CA8E
:10168300F0A3C8C582C8CAC583CADFE9DEE780BE46
:011BDB000009
:100C4600EF8DF0A4A8F0CF8CF0A428CE8DF0A42EC2
:020C5600FE227C
:100C5800BC000BBE0029EF8DF084FFADF022E4CC80
:100C6800F875F008EF2FFFEE33FEEC33FCEE9DEC49
:100C7800984005FCEE9DFE0FD5F0E9E4CEFD22ED8F
:100C8800F8F5F0EE8420D21CFEADF075F008EF2FD9
:100C9800FFED33FD4007985006D5F0F222C398FDCA
:050CA8000FD5F0EA2267
:100CAD00C2D5EC30E709B2D5E4C39DFDE49CFCEE62
:100CBD0030E715B2D5E4C39FFFE49EFE120C58C376
:100CCD00E49DFDE49CFC8003120C5830D507C3E471
:060CDD009FFFE49EFE22D1
:100CE300BB010A89828A83E0F5F0A3E022500687DC
:100CF300F009E71922BBFE07E3F5F009E31922899E
:0B0D0300828A83E493F5F074019322D0
:100D0E0075F008758200EF2FFFEE33FECD33CDCC9C
:100D1E0033CCC58233C5829BED9AEC99E58298401F
:100D2E000CF582EE9BFEED9AFDEC99FC0FD5F0D6FC
:100D3E00E4CEFBE4CDFAE4CCF9A88222B800C1B926
:100D4E000059BA002DEC8BF084CFCECDFCE5F0CB64
:100D5E00F97818EF2FFFEE33FEED33FDEC33FCEB9D
:100D6E0033FB10D703994004EB99FB0FD8E5E4F958
:100D7E00FA227818EF2FFFEE33FEED33FDEC33FC45
:100D8E00C933C910D7059BE99A4007EC9BFCE99A39
:100D9E00F90FD8E0E4C9FAE4CCFB2275F010EF2F7E
:100DAE00FFEE33FEED33FDCC33CCC833C810D7077E
:100DBE009BEC9AE899400AED9BFDEC9AFCE899F8B9
:0E0DCE000FD5F0DAE4CDFBE4CCFAE4C8F9224C
:101A6B00C2D5E830E70FB2D5E4C39BFBE49AFAE4A6
:101A7B0099F9E498F8EC30E717B2D5121AA1120DC8
:101A8B004AE4C39BFBE49AFAE499F9E498F88003DF
:101A9B00120D4A30D50DE4C39FFFE49EFEE49DFD7D
:041AAB00E49CFC2299
:100DDC00EB9FF5F0EA9E42F0E99D42F0E89C45F06D
:010DEC0022E4
:100DED00E8600FECC313FCED13FDEE13FEEF13FFE4
:030DFD00D8F12208
:100E0000E8600FEFC333FFEE33FEED33FDEC33FC50
:030E1000D8F122F4
:0C0E1300E6FC08E6FD08E6FE08E6FF220B
:0C0E1F00ECF608EDF608EEF608EFF622FF
:0C0E2B00ECF0A3EDF0A3EEF0A3EFF0223A
:0C0E3700A42582F582E5F03583F58322C6
:00000001FF
